:020000040800F2
:1000000098060020690200087102000873020008C7
:10001000750200087702000879020008000000005D
:100020000000000000000000000000007B0200084B
:100030007D020008000000007F0200085D07000844
:10004000830200088302000883020008830200087C
:1000500083020008830200084D0400082D050008F3
:100060009D0500080D0600087D06000883020008B3
:10007000830200088302000883020008830200084C
:1000800083020008830200088302000800000000C9
:10009000000000000000000000000000ED06000865
:1000A000830200088302000883020008830200081C
:1000B000830200088302000883020008830200080C
:1000C00083020008830200088302000883020008FC
:1000D0008302000883020008850700080000000072
:1000E000BD0400088302000883020008000000002D
:1000F0000000000000000000000000008302000873
:100100000000000083020008830200088302000848
:1001100000000000000000000000000000000000DF
:10012000830200088302000883020008830200089B
:100130008302000800000000000000000000000032
:100140000000000000000000000000008302000822
:10015000830200088302000883020008830200086B
:100160008302000883020008000000000000000075
:10017000000000000000000000000000000000007F
:1001800000000000830200080000000000000000E2
:100190008302000800F002F800F057F814A696E871
:1001A000000CB244B344DA4501D100F04EF8BAE88D
:1001B0000F000FA696E83000A5EB040504EB060738
:1001C000AAEB0704A7F101074FEA15154FEA34140B
:1001D000A4F10104AC4201D300F037F813F0010F91
:1001E00018BFFB1A43F0010300F001F8DBE71847E2
:1001F000680A0000880A0000103A24BF78C878C155
:10020000FAD8520724BF30C830C144BF04680C601C
:1002100070470000704700000023002400250026DE
:10022000103A28BF78C1FBD8520728BF30C148BF59
:100230000B607047642900F03780002070471FB5BD
:1002400000F0EDFC1FBD10B510BD00F0CAF811465E
:10025000FFF7F5FF00F0C4FC00F0E8F803B4FFF787
:10026000F2FF03BC00F0ECF809488047094800475A
:10027000FEE7FEE7FEE7FEE7FEE7FEE7FEE7FEE756
:10028000FEE7FEE704480549054A064B70470000B3
:1002900069070008950100089800002098060020D2
:1002A00098020020980200202DE9F0410646002423
:1002B00010687529314616A510D0AFF300800028CC
:1002C00002DA404213A507E031688A0701D512A57A
:1002D00002E0490704D511A5012401E0AFF3008035
:1002E00000210A2206F1240709E0B0FBF2FCB0FB72
:1002F000F2F302FB1C00303078541846491C0028E9
:10030000F3D123462A463046BDE8F04100F00BB851
:10031000000000002D0000002B0000002000000065
:100320007047704770472DE9F0470D469946924651
:10033000044600F124080168880604D5E06921F02C
:100340001001216000E00120A84201DD471B00E010
:100350000027A1697A1902EB0900081AA061207828
:10036000C00602D42046AFF30080002608E0D4E99E
:1003700001211AF806009047206A401C761C206272
:100380004E45F4DB2078C0060AD52046AFF3008046
:1003900006E0D4E9012130209047206A401C206209
:1003A000381EA7F10107F4DC07E0D4E9012118F8B1
:1003B00005009047206A401C2062281EA5F1010517
:1003C000F3DC2046AFF300802078000602D502203F
:1003D000BDE8F0870120FBE70048704718000020C7
:1003E00070477546FFF7F8FFAE460500694653466D
:1003F00020F00700854618B020B5FFF743FFBDE8A1
:1004000020404FF000064FF000074FF000084FF07B
:10041000000BAC46ACE8C009ACE8C009ACE8C009C8
:10042000ACE8C00921F007018D46704710B50446BD
:10043000AFF300802046BDE81040FFF70FBF00007B
:1004400001491820ABBEFEE72600020040F2800002
:1004500043F6144140F27C0CC2F20000C4F20101E8
:10046000C2F2000C00680A68DCF800308002DA4052
:1004700040F2840302F00102C2F200031A604EF25D
:100480008022CEF2000240231360DCF8002001231A
:1004900003FA02F20B681A430A601021C4F2020147
:1004A0000958DCF80000C140C90708BF704740F296
:1004B0007801C2F2000109680847000040F280009C
:1004C00043F6144140F27C0CC2F20000C4F2010178
:1004D000C2F2000C00680A68DCF800308002DA40E2
:1004E00040F2840302F00102C2F200031A604EF2ED
:1004F0008422CEF200024FF480731360DCF80020F7
:10050000012303FA02F20B681A430A601021C4F2B5
:1005100002010958DCF80000C140C90708BF704754
:1005200040F27801C2F200010968084740F28000F9
:1005300043F6144140F27C0CC2F20000C4F2010107
:10054000C2F2000C00680A68DCF800308002DA4071
:1005500040F2840302F00102C2F200031A604EF27C
:100560008022CEF2000280231360DCF800200123F9
:1005700003FA02F20B681A430A601021C4F2020166
:100580000958DCF80000C140C90708BF704740F2B5
:100590007801C2F2000109680847000040F28000BB
:1005A00043F6144140F27C0CC2F20000C4F2010197
:1005B000C2F2000C00680A68DCF800308002DA4001
:1005C00040F2840302F00102C2F200031A604EF20C
:1005D0008022CEF200024FF480731360DCF800201A
:1005E000012303FA02F20B681A430A601021C4F2D5
:1005F00002010958DCF80000C140C90708BF704774
:1006000040F27801C2F200010968084740F2800018
:1006100043F6144140F27C0CC2F20000C4F2010126
:10062000C2F2000C00680A68DCF800308002DA4090
:1006300040F2840302F00102C2F200031A604EF29B
:100640008022CEF200024FF400731360DCF8002029
:10065000012303FA02F20B681A430A601021C4F264
:1006600002010958DCF80000C140C90708BF704703
:1006700040F27801C2F200010968084740F28000A8
:1006800043F6144140F27C0CC2F20000C4F20101B6
:10069000C2F2000C00680A68DCF800308002DA4020
:1006A00040F2840302F00102C2F200031A604EF22B
:1006B0008022CEF200024FF480631360DCF8002049
:1006C000012303FA02F20B681A430A601021C4F2F4
:1006D00002010958DCF80000C140C90708BF704793
:1006E00040F27801C2F200010968084740F2800038
:1006F00043F6144140F27C0CC2F20000C4F2010146
:10070000C2F2000C00680A68DCF800308002DA40AF
:1007100040F2840302F00102C2F200031A604EF2BA
:100720008022CEF200024FF400031360DCF80020B8
:10073000012303FA02F20B681A430A601021C4F283
:1007400002010958DCF80000C140C90708BF704722
:1007500040F27801C2F200010968084740F29000B7
:10076000C2F20000006800474EF68850CEF200004A
:10077000016841F4700101604FF0006140F8801C95
:1007800070470000B0B54EF2842044F20044CEF22F
:1007900000004021C4F2000401602068800658BFB8
:1007A000B0BD40F28800C2F200000568204620215A
:1007B00000F00AF80028F9D0204600F00BF8C0B28B
:1007C0002946BDE8B04008470068084018BF01202E
:1007D0007047000040686FF35F207047800802D0C8
:1007E000401E00BFFCD170472DE9F04140F21006D9
:1007F000C2F20006044630684FF0FF31B1FBF0F161
:100800004FF47A7201FB02F744F6D358BC42C1F2AE
:1008100062080BD9A0FB0801880907FB00F500BF9F
:100820002846E41BFFF7DAFFBC42F9D83068A0FB8A
:10083000080188096043BDE8F041FFF7CFBF000021
:100840002DE9F04140F21006C2F20006044630687D
:100850004FF0FF31B1FBF0F144F24022C0F20F0241
:1008600001FB02F74DF68368BC42C4F21B380BD97A
:10087000A0FB0801880C07FB00F500BF2846E41B1D
:10088000FFF7ACFFBC42F9D83068A0FB0801880C28
:100890006043BDE8F041FFF7A1BF000080B58211C1
:1008A00040F2FF3340F2140C9A43C4F2020CC0B27F
:1008B00052F80CE0012383402EEA030301FA00F012
:1008C000184342F80C0080BD10B543F63003C4F263
:1008D00002034FEA204E4FF0010C1C680CFA0EF296
:1008E00022431A605A69042942F480425A6142F252
:1008F0000402CEF20402136843F00703136088BFBA
:1009000010BD0022C4F2020202EB8E22C0B2DFE868
:1009100001F0030319270F0011684000032303FAB5
:1009200000F081431160D16821EA0000D06010BD61
:10093000116840000323834099431160D1689943B3
:100940000A2316E0116840000323834001249943E1
:1009500004FA00F008431060D0689843D06010BDDE
:10096000116840000323834099431160D168994383
:10097000012303FA00F00843D06010BD80B50120C8
:1009800000F0E4F80A20FFF72FFF022000F0DEF865
:100990000A20FFF729FF802000F0D8F840F28C00F1
:1009A000C2F200000021016080BD0000B0B5092046
:1009B0000221FFF789FF0720C0F202000221FFF7A2
:1009C00083FF40F200050024C2F2000555F8240020
:1009D0000221FFF779FF0134042CF7D16420FFF7DF
:1009E00003FF302000F0B2F80520FFF7FDFE3020B5
:1009F00000F0ACF86420FFF723FF302000F0A6F8E9
:100A00006420FFF71DFF202000F0A0F86420FFF70E
:100A100017FF282000F09AF83C20FFF711FF08206C
:100A200000F094F83C20FFF70BFF012000F08EF857
:100A30000420FFF7D9FE062000F088F83C20FFF7DD
:100A4000FFFE0C2000F082F83C20FFF7F9FE80202A
:100A500000F07CF840F28C01C2F2000100220C2070
:100A60000A60BDE8B04000F071B8000070B50446FF
:100A70000078002808BF70BD40F28C05C2F2000566
:100A800000260CE0C02000F061F82E60207800F015
:100A900011F828680130286014F8010F48B129685E
:100AA0001029EFD00A28F1D1C02000F04FF801340E
:100AB000EBE770BD2DE9F041054640F207080A203A
:100AC000C0F20208FFF790FE09200121FFF7E6FEC1
:100AD000404601212F09FFF7E1FE40F20006002405
:100AE000C2F2000656F8240027FA04F101F00101D1
:100AF000FFF7D4FE0134042CF4D10120FFF7A0FE4F
:100B0000404600210027FFF7C9FE0120FFF798FEAD
:100B100040460121FFF7C2FE05F00F0456F82700FA
:100B200024FA07F101F00101FFF7B8FE0137042FA5
:100B3000F4D10120FFF784FE40460021FFF7AEFE0E
:100B40000120BDE8F041FFF77BBE00002DE9F04138
:100B5000054640F207080A20C0F20208FFF744FEEB
:100B6000092000210027FFF799FE404601212C09AA
:100B7000FFF794FE40F20006C2F2000656F8270086
:100B800024FA07F101F00101FFF788FE0137042F75
:100B9000F4D10120FFF754FE404600210027FFF763
:100BA0007DFE0120FFF74CFE40460121FFF776FE57
:100BB00056F8270025FA07F101F00101FFF76EFE54
:100BC0000137042FF4D10120FFF73AFE40460021FF
:100BD000FFF764FE0120BDE8F041FFF731BE0000E1
:100BE000FFF7E4FEFFF7CAFE40F64D4440F63845F5
:100BF000C0F60004C0F60005FFF7C0FE2046FFF770
:100C000035FF41F28830FFF7EFFDFFF7B7FE2846CA
:100C1000FFF72CFF40F6B830FFF7E6FDECE7F1EE0A
:100C2000100A4FF6FF71C0F2C03120EA010040F017
:100C30004070E1EE100A70473230323332313336D1
:100C400034350A32333132323334343900426F773B
:100C5000656E0A44656E6700780C0008000000208D
:100C600018000000F8010008900C0008180000208F
:100C700080060000180200080500010004000100C1
:100C80000A000100080000000024F4000000000039
:040000050800019559
:00000001FF
